:0C0943000A08C0F9A4B0999282F88090D4
:10091D00E4FDFCE4FBFAC3EB9FEE6480F8EA64802F
:10092D009850070BBB00010A80EC0DBD00010CEDCA
:05093D00646E4C70DE49
:010942002292
:1008000075900F75900FE590640F60727F327E00D7
:1008100012091DE590640F6065E590B40E03900029
:1008200001E590B40D03900002E590B40B03900035
:1008300003E590B407039000047590F0E59064F030
:10084000603CE590B4E000E590B4D004A3A3A3A37A
:10085000E590B4B00B74082582F582E43583F58306
:10086000E590B4700B740C2582F582E43583F58332
:10087000C3E582940AE58394004003900009AF82A7
:1008800074082FF8E6F5A07F327E0012091D0208D9
:010890000364
:0300000002089162
:0C089100787FE4F6D8FD7581110208D8CC
:10089D00020800E493A3F8E493A34003F68001F269
:1008AD0008DFF48029E493A3F85407240CC8C3335C
:1008BD00C4540F4420C8834004F456800146F6DF2B
:1008CD00E4800B0102040810204080900943E47E6F
:1008DD00019360BCA3FF543F30E509541FFEE49320
:1008ED00A360010ECF54C025E060A840B8E493A3E7
:1008FD00FAE493A3F8E493A3C8C582C8CAC583CA12
:10090D00F0A3C8C582C8CAC583CADFE9DEE780BEC9
:01094F0000A7
:00000001FF
