:0C08D0000A0BC0F9A4B0999282F8809045
:1008BD00E4F508F509850B0AC288D2A8D2AF850ADE
:0308CD008080FB2D
:0300030002088C64
:10088C00C0E0C0D075D000C0000509E509700205B4
:10089C0008D39409E5089400500280067508007589
:1008AC000900740B2509F8E6F50AD000D0D0D0E089
:0108BC003209
:03000000020800F3
:0C080000787FE4F6D8FD758114020847EB
:10080C000208BDE493A3F8E493A34003F68001F23D
:10081C0008DFF48029E493A3F85407240CC8C333ED
:10082C00C4540F4420C8834004F456800146F6DFBC
:10083C00E4800B01020408102040809008D0E47E74
:10084C00019360BCA3FF543F30E509541FFEE493B1
:10085C00A360010ECF54C025E060A840B8E493A378
:10086C00FAE493A3F8E493A3C8C582C8CAC583CAA3
:10087C00F0A3C8C582C8CAC583CADFE9DEE780BE5B
:0108DC00001B
:00000001FF
