:0C08DB000A08C0F9A4B0999282F880903D
:1008B500E4FDFCE4FBFAC3EB9FEE6480F8EA648098
:1008C5009850070BBB00010A80EC0DBD00010CED33
:0508D500646E4C70DEB2
:0108DA0022FB
:10088C00E4F582F583AF8274082FF8E6F9F5807FE2
:10089C00C87E001208B5A3C3E582940AE5839400D0
:0908AC0040E3E4F583F58280DCF1
:03000000020800F3
:0C080000787FE4F6D8FD758111020847EE
:10080C0002088CE493A3F8E493A34003F68001F26E
:10081C0008DFF48029E493A3F85407240CC8C333ED
:10082C00C4540F4420C8834004F456800146F6DFBC
:10083C00E4800B01020408102040809008DBE47E69
:10084C00019360BCA3FF543F30E509541FFEE493B1
:10085C00A360010ECF54C025E060A840B8E493A378
:10086C00FAE493A3F8E493A3C8C582C8CAC583CAA3
:10087C00F0A3C8C582C8CAC583CADFE9DEE780BE5B
:0108E7000010
:00000001FF
