:0408F200020C0001F3
:1008CA00E4FFFEE4FDFC0DBD00010CBC03F8BDE82D
:0C08DA00F50FBF00010EEF646E4E70E7DA
:0108E60022EF
:0E088C00D288D2A8D2AFE50D6401450C70F8F9
:10089A00F509F50A750BFE850B90850B901208CAAF
:1008AA00E50B25E0F50B050B050AE50A70020509BB
:0E08BA00C39408E509940040E1E4F50CF50D47
:0208C80080C8E6
:030003000208E709
:0B08E700C2A8750C00750D01D2A832EC
:03000000020800F3
:0C080000787FE4F6D8FD75810D020847F2
:10080C0002088CE493A3F8E493A34003F68001F26E
:10081C0008DFF48029E493A3F85407240CC8C333ED
:10082C00C4540F4420C8834004F456800146F6DFBC
:10083C00E4800B01020408102040809008F2E47E52
:10084C00019360BCA3FF543F30E509541FFEE493B1
:10085C00A360010ECF54C025E060A840B8E493A378
:10086C00FAE493A3F8E493A3C8C582C8CAC583CAA3
:10087C00F0A3C8C582C8CAC583CADFE9DEE780BE5B
:0108F6000001
:00000001FF
